{
  "_format": "hh-sol-artifact-1",
  "contractName": "AgentPredictionMarket",
  "sourceName": "contracts/AgentPredictionMarket.sol",
  "abi": [
    {
      "inputs": [
        {
          "internalType": "address",
          "name": "initialRelayer",
          "type": "address"
        }
      ],
      "stateMutability": "nonpayable",
      "type": "constructor"
    },
    {
      "anonymous": false,
      "inputs": [
        {
          "indexed": true,
          "internalType": "address",
          "name": "agent",
          "type": "address"
        }
      ],
      "name": "AgentRegistered",
      "type": "event"
    },
    {
      "anonymous": false,
      "inputs": [
        {
          "indexed": true,
          "internalType": "uint256",
          "name": "marketId",
          "type": "uint256"
        },
        {
          "indexed": false,
          "internalType": "string",
          "name": "question",
          "type": "string"
        },
        {
          "indexed": false,
          "internalType": "uint256",
          "name": "endTime",
          "type": "uint256"
        }
      ],
      "name": "MarketCreated",
      "type": "event"
    },
    {
      "anonymous": false,
      "inputs": [
        {
          "indexed": true,
          "internalType": "uint256",
          "name": "marketId",
          "type": "uint256"
        },
        {
          "indexed": false,
          "internalType": "uint8",
          "name": "winningSide",
          "type": "uint8"
        }
      ],
      "name": "MarketResolved",
      "type": "event"
    },
    {
      "anonymous": false,
      "inputs": [
        {
          "indexed": true,
          "internalType": "address",
          "name": "previousOwner",
          "type": "address"
        },
        {
          "indexed": true,
          "internalType": "address",
          "name": "newOwner",
          "type": "address"
        }
      ],
      "name": "OwnerChanged",
      "type": "event"
    },
    {
      "anonymous": false,
      "inputs": [
        {
          "indexed": true,
          "internalType": "address",
          "name": "previousRelayer",
          "type": "address"
        },
        {
          "indexed": true,
          "internalType": "address",
          "name": "newRelayer",
          "type": "address"
        }
      ],
      "name": "RelayerChanged",
      "type": "event"
    },
    {
      "anonymous": false,
      "inputs": [
        {
          "indexed": true,
          "internalType": "uint256",
          "name": "marketId",
          "type": "uint256"
        },
        {
          "indexed": true,
          "internalType": "address",
          "name": "agent",
          "type": "address"
        },
        {
          "indexed": false,
          "internalType": "uint8",
          "name": "side",
          "type": "uint8"
        },
        {
          "indexed": false,
          "internalType": "uint256",
          "name": "stake",
          "type": "uint256"
        }
      ],
      "name": "TradeExecuted",
      "type": "event"
    },
    {
      "inputs": [
        {
          "internalType": "string",
          "name": "question",
          "type": "string"
        },
        {
          "internalType": "uint256",
          "name": "endTime",
          "type": "uint256"
        }
      ],
      "name": "addMarket",
      "outputs": [
        {
          "internalType": "uint256",
          "name": "",
          "type": "uint256"
        }
      ],
      "stateMutability": "nonpayable",
      "type": "function"
    },
    {
      "inputs": [
        {
          "internalType": "address",
          "name": "",
          "type": "address"
        }
      ],
      "name": "isAgent",
      "outputs": [
        {
          "internalType": "bool",
          "name": "",
          "type": "bool"
        }
      ],
      "stateMutability": "view",
      "type": "function"
    },
    {
      "inputs": [
        {
          "internalType": "uint256",
          "name": "",
          "type": "uint256"
        }
      ],
      "name": "markets",
      "outputs": [
        {
          "internalType": "uint256",
          "name": "id",
          "type": "uint256"
        },
        {
          "internalType": "string",
          "name": "question",
          "type": "string"
        },
        {
          "internalType": "uint256",
          "name": "endTime",
          "type": "uint256"
        },
        {
          "internalType": "bool",
          "name": "resolved",
          "type": "bool"
        },
        {
          "internalType": "uint8",
          "name": "winningSide",
          "type": "uint8"
        },
        {
          "internalType": "bool",
          "name": "exists",
          "type": "bool"
        }
      ],
      "stateMutability": "view",
      "type": "function"
    },
    {
      "inputs": [],
      "name": "nextMarketId",
      "outputs": [
        {
          "internalType": "uint256",
          "name": "",
          "type": "uint256"
        }
      ],
      "stateMutability": "view",
      "type": "function"
    },
    {
      "inputs": [],
      "name": "owner",
      "outputs": [
        {
          "internalType": "address",
          "name": "",
          "type": "address"
        }
      ],
      "stateMutability": "view",
      "type": "function"
    },
    {
      "inputs": [
        {
          "internalType": "uint256",
          "name": "",
          "type": "uint256"
        },
        {
          "internalType": "address",
          "name": "",
          "type": "address"
        }
      ],
      "name": "positions",
      "outputs": [
        {
          "internalType": "uint256",
          "name": "yesShares",
          "type": "uint256"
        },
        {
          "internalType": "uint256",
          "name": "noShares",
          "type": "uint256"
        }
      ],
      "stateMutability": "view",
      "type": "function"
    },
    {
      "inputs": [
        {
          "internalType": "address",
          "name": "agent",
          "type": "address"
        }
      ],
      "name": "registerAgent",
      "outputs": [],
      "stateMutability": "nonpayable",
      "type": "function"
    },
    {
      "inputs": [],
      "name": "relayer",
      "outputs": [
        {
          "internalType": "address",
          "name": "",
          "type": "address"
        }
      ],
      "stateMutability": "view",
      "type": "function"
    },
    {
      "inputs": [
        {
          "internalType": "uint256",
          "name": "marketId",
          "type": "uint256"
        },
        {
          "internalType": "uint8",
          "name": "winningSide",
          "type": "uint8"
        }
      ],
      "name": "resolveMarket",
      "outputs": [],
      "stateMutability": "nonpayable",
      "type": "function"
    },
    {
      "inputs": [
        {
          "internalType": "address",
          "name": "newOwner",
          "type": "address"
        }
      ],
      "name": "setOwner",
      "outputs": [],
      "stateMutability": "nonpayable",
      "type": "function"
    },
    {
      "inputs": [
        {
          "internalType": "address",
          "name": "newRelayer",
          "type": "address"
        }
      ],
      "name": "setRelayer",
      "outputs": [],
      "stateMutability": "nonpayable",
      "type": "function"
    },
    {
      "inputs": [
        {
          "internalType": "uint256",
          "name": "marketId",
          "type": "uint256"
        },
        {
          "internalType": "address",
          "name": "agent",
          "type": "address"
        },
        {
          "internalType": "uint8",
          "name": "side",
          "type": "uint8"
        },
        {
          "internalType": "uint256",
          "name": "stake",
          "type": "uint256"
        }
      ],
      "name": "trade",
      "outputs": [],
      "stateMutability": "nonpayable",
      "type": "function"
    }
  ],
  "bytecode": "0x60806040523480156200001157600080fd5b506040516200229b3803806200229b8339818101604052810190620000379190620001df565b336000806101000a81548173ffffffffffffffffffffffffffffffffffffffff021916908373ffffffffffffffffffffffffffffffffffffffff16021790555080600160006101000a81548173ffffffffffffffffffffffffffffffffffffffff021916908373ffffffffffffffffffffffffffffffffffffffff1602179055503373ffffffffffffffffffffffffffffffffffffffff16600073ffffffffffffffffffffffffffffffffffffffff167fb532073b38c83145e3e5135377a08bf9aab55bc0fd7c1179cd4fb995d2a5159c60405160405180910390a38073ffffffffffffffffffffffffffffffffffffffff16600073ffffffffffffffffffffffffffffffffffffffff167f18f08848c5694a025f9966c34ff2367f32a1a8275663b282ee01f4338b04549060405160405180910390a35062000211565b600080fd5b600073ffffffffffffffffffffffffffffffffffffffff82169050919050565b6000620001a7826200017a565b9050919050565b620001b9816200019a565b8114620001c557600080fd5b50565b600081519050620001d981620001ae565b92915050565b600060208284031215620001f857620001f762000175565b5b60006200020884828501620001c8565b91505092915050565b61207a80620002216000396000f3fe608060405234801561001057600080fd5b50600436106100b45760003560e01c80638da5cb5b116100715780638da5cb5b14610179578063969419fe14610197578063ab816baa146101c7578063b1283e77146101e3578063df55406e14610218578063e684d71814610234576100b4565b806313af4035146100b95780631ffbb064146100d5578063306b9bb914610105578063406ef2ef146101215780636548e9bc1461013f5780638406c0791461015b575b600080fd5b6100d360048036038101906100ce919061120b565b610265565b005b6100ef60048036038101906100ea919061120b565b61041f565b6040516100fc9190611253565b60405180910390f35b61011f600480360381019061011a919061120b565b61043f565b005b610129610669565b6040516101369190611287565b60405180910390f35b6101596004803603810190610154919061120b565b61066f565b005b61016361082c565b60405161017091906112b1565b60405180910390f35b610181610852565b60405161018e91906112b1565b60405180910390f35b6101b160048036038101906101ac919061135d565b610876565b6040516101be9190611287565b60405180910390f35b6101e160048036038101906101dc91906113f6565b610acd565b005b6101fd60048036038101906101f8919061145d565b610e74565b60405161020f96959493929190611529565b60405180910390f35b610232600480360381019061022d9190611591565b610f5f565b005b61024e600480360381019061024991906115d1565b611172565b60405161025c929190611611565b60405180910390f35b60008054906101000a900473ffffffffffffffffffffffffffffffffffffffff1673ffffffffffffffffffffffffffffffffffffffff163373ffffffffffffffffffffffffffffffffffffffff16146102f3576040517f08c379a00000000000000000000000000000000000000000000000000000000081526004016102ea90611686565b60405180910390fd5b600073ffffffffffffffffffffffffffffffffffffffff168173ffffffffffffffffffffffffffffffffffffffff1603610362576040517f08c379a0000000000000000000000000000000000000000000000000000000008152600401610359906116f2565b60405180910390fd5b8073ffffffffffffffffffffffffffffffffffffffff1660008054906101000a900473ffffffffffffffffffffffffffffffffffffffff1673ffffffffffffffffffffffffffffffffffffffff167fb532073b38c83145e3e5135377a08bf9aab55bc0fd7c1179cd4fb995d2a5159c60405160405180910390a3806000806101000a81548173ffffffffffffffffffffffffffffffffffffffff021916908373ffffffffffffffffffffffffffffffffffffffff16021790555050565b60026020528060005260406000206000915054906101000a900460ff1681565b600160009054906101000a900473ffffffffffffffffffffffffffffffffffffffff1673ffffffffffffffffffffffffffffffffffffffff163373ffffffffffffffffffffffffffffffffffffffff16146104cf576040517f08c379a00000000000000000000000000000000000000000000000000000000081526004016104c69061175e565b60405180910390fd5b600073ffffffffffffffffffffffffffffffffffffffff168173ffffffffffffffffffffffffffffffffffffffff160361053e576040517f08c379a0000000000000000000000000000000000000000000000000000000008152600401610535906117ca565b60405180910390fd5b600260008273ffffffffffffffffffffffffffffffffffffffff1673ffffffffffffffffffffffffffffffffffffffff16815260200190815260200160002060009054906101000a900460ff16156105cb576040517f08c379a00000000000000000000000000000000000000000000000000000000081526004016105c290611836565b60405180910390fd5b6001600260008373ffffffffffffffffffffffffffffffffffffffff1673ffffffffffffffffffffffffffffffffffffffff16815260200190815260200160002060006101000a81548160ff0219169083151502179055508073ffffffffffffffffffffffffffffffffffffffff167f82d0829d9d481e4cb9913897f9b9c903271c4db68c7b3324071d2a7e3b2c5ff060405160405180910390a250565b60055481565b60008054906101000a900473ffffffffffffffffffffffffffffffffffffffff1673ffffffffffffffffffffffffffffffffffffffff163373ffffffffffffffffffffffffffffffffffffffff16146106fd576040517f08c379a00000000000000000000000000000000000000000000000000000000081526004016106f490611686565b60405180910390fd5b600073ffffffffffffffffffffffffffffffffffffffff168173ffffffffffffffffffffffffffffffffffffffff160361076c576040517f08c379a0000000000000000000000000000000000000000000000000000000008152600401610763906118a2565b60405180910390fd5b8073ffffffffffffffffffffffffffffffffffffffff16600160009054906101000a900473ffffffffffffffffffffffffffffffffffffffff1673ffffffffffffffffffffffffffffffffffffffff167f18f08848c5694a025f9966c34ff2367f32a1a8275663b282ee01f4338b04549060405160405180910390a380600160006101000a81548173ffffffffffffffffffffffffffffffffffffffff021916908373ffffffffffffffffffffffffffffffffffffffff16021790555050565b600160009054906101000a900473ffffffffffffffffffffffffffffffffffffffff1681565b60008054906101000a900473ffffffffffffffffffffffffffffffffffffffff1681565b60008060009054906101000a900473ffffffffffffffffffffffffffffffffffffffff1673ffffffffffffffffffffffffffffffffffffffff163373ffffffffffffffffffffffffffffffffffffffff1614610907576040517f08c379a00000000000000000000000000000000000000000000000000000000081526004016108fe90611686565b60405180910390fd5b428211610949576040517f08c379a00000000000000000000000000000000000000000000000000000000081526004016109409061190e565b60405180910390fd5b60006005549050600160056000828254610963919061195d565b925050819055506040518060c0016040528082815260200186868080601f016020809104026020016040519081016040528093929190818152602001838380828437600081840152601f19601f820116905080830192505050505050508152602001848152602001600015158152602001600060ff1681526020016001151581525060036000838152602001908152602001600020600082015181600001556020820151816001019081610a179190611bcc565b506040820151816002015560608201518160030160006101000a81548160ff02191690831515021790555060808201518160030160016101000a81548160ff021916908360ff16021790555060a08201518160030160026101000a81548160ff021916908315150217905550905050807f2d1e9ad45dbe8e898e0374deebf2a661b2ae7c1855d2a29507d584c35d287c75868686604051610aba93929190611cda565b60405180910390a2809150509392505050565b600160009054906101000a900473ffffffffffffffffffffffffffffffffffffffff1673ffffffffffffffffffffffffffffffffffffffff163373ffffffffffffffffffffffffffffffffffffffff1614610b5d576040517f08c379a0000000000000000000000000000000000000000000000000000000008152600401610b549061175e565b60405180910390fd5b600260008473ffffffffffffffffffffffffffffffffffffffff1673ffffffffffffffffffffffffffffffffffffffff16815260200190815260200160002060009054906101000a900460ff16610be9576040517f08c379a0000000000000000000000000000000000000000000000000000000008152600401610be090611d58565b60405180910390fd5b60006003600086815260200190815260200160002090508060030160029054906101000a900460ff16610c51576040517f08c379a0000000000000000000000000000000000000000000000000000000008152600401610c4890611dc4565b60405180910390fd5b8060030160009054906101000a900460ff1615610ca3576040517f08c379a0000000000000000000000000000000000000000000000000000000008152600401610c9a90611e30565b60405180910390fd5b80600201544210610ce9576040517f08c379a0000000000000000000000000000000000000000000000000000000008152600401610ce090611e9c565b60405180910390fd5b60008211610d2c576040517f08c379a0000000000000000000000000000000000000000000000000000000008152600401610d2390611f08565b60405180910390fd5b60018360ff161480610d41575060028360ff16145b610d80576040517f08c379a0000000000000000000000000000000000000000000000000000000008152600401610d7790611f74565b60405180910390fd5b60006004600087815260200190815260200160002060008673ffffffffffffffffffffffffffffffffffffffff1673ffffffffffffffffffffffffffffffffffffffff168152602001908152602001600020905060018460ff1603610dff5782816000016000828254610df3919061195d565b92505081905550610e1b565b82816001016000828254610e13919061195d565b925050819055505b8473ffffffffffffffffffffffffffffffffffffffff16867fd511d209cfb38f75fcfa22e828b5bd91643bce4d0ebab7d358147e2de84bac5c8686604051610e64929190611f94565b60405180910390a3505050505050565b6003602052806000526040600020600091509050806000015490806001018054610e9d906119ef565b80601f0160208091040260200160405190810160405280929190818152602001828054610ec9906119ef565b8015610f165780601f10610eeb57610100808354040283529160200191610f16565b820191906000526020600020905b815481529060010190602001808311610ef957829003601f168201915b5050505050908060020154908060030160009054906101000a900460ff16908060030160019054906101000a900460ff16908060030160029054906101000a900460ff16905086565b60008054906101000a900473ffffffffffffffffffffffffffffffffffffffff1673ffffffffffffffffffffffffffffffffffffffff163373ffffffffffffffffffffffffffffffffffffffff1614610fed576040517f08c379a0000000000000000000000000000000000000000000000000000000008152600401610fe490611686565b60405180910390fd5b60018160ff161480611002575060028160ff16145b611041576040517f08c379a000000000000000000000000000000000000000000000000000000000815260040161103890611f74565b60405180910390fd5b60006003600084815260200190815260200160002090508060030160029054906101000a900460ff166110a9576040517f08c379a00000000000000000000000000000000000000000000000000000000081526004016110a090611dc4565b60405180910390fd5b8060030160009054906101000a900460ff16156110fb576040517f08c379a00000000000000000000000000000000000000000000000000000000081526004016110f290612009565b60405180910390fd5b60018160030160006101000a81548160ff021916908315150217905550818160030160016101000a81548160ff021916908360ff160217905550827f739f283563fb51ab6b89ee95d937b2e63a6cfcb83c385dbebb629f9d97bd43e6836040516111659190612029565b60405180910390a2505050565b6004602052816000526040600020602052806000526040600020600091509150508060000154908060010154905082565b600080fd5b600080fd5b600073ffffffffffffffffffffffffffffffffffffffff82169050919050565b60006111d8826111ad565b9050919050565b6111e8816111cd565b81146111f357600080fd5b50565b600081359050611205816111df565b92915050565b600060208284031215611221576112206111a3565b5b600061122f848285016111f6565b91505092915050565b60008115159050919050565b61124d81611238565b82525050565b60006020820190506112686000830184611244565b92915050565b6000819050919050565b6112818161126e565b82525050565b600060208201905061129c6000830184611278565b92915050565b6112ab816111cd565b82525050565b60006020820190506112c660008301846112a2565b92915050565b600080fd5b600080fd5b600080fd5b60008083601f8401126112f1576112f06112cc565b5b8235905067ffffffffffffffff81111561130e5761130d6112d1565b5b60208301915083600182028301111561132a576113296112d6565b5b9250929050565b61133a8161126e565b811461134557600080fd5b50565b60008135905061135781611331565b92915050565b600080600060408486031215611376576113756111a3565b5b600084013567ffffffffffffffff811115611394576113936111a8565b5b6113a0868287016112db565b935093505060206113b386828701611348565b9150509250925092565b600060ff82169050919050565b6113d3816113bd565b81146113de57600080fd5b50565b6000813590506113f0816113ca565b92915050565b600080600080608085870312156114105761140f6111a3565b5b600061141e87828801611348565b945050602061142f878288016111f6565b9350506040611440878288016113e1565b925050606061145187828801611348565b91505092959194509250565b600060208284031215611473576114726111a3565b5b600061148184828501611348565b91505092915050565b600081519050919050565b600082825260208201905092915050565b60005b838110156114c45780820151818401526020810190506114a9565b60008484015250505050565b6000601f19601f8301169050919050565b60006114ec8261148a565b6114f68185611495565b93506115068185602086016114a6565b61150f816114d0565b840191505092915050565b611523816113bd565b82525050565b600060c08201905061153e6000830189611278565b818103602083015261155081886114e1565b905061155f6040830187611278565b61156c6060830186611244565b611579608083018561151a565b61158660a0830184611244565b979650505050505050565b600080604083850312156115a8576115a76111a3565b5b60006115b685828601611348565b92505060206115c7858286016113e1565b9150509250929050565b600080604083850312156115e8576115e76111a3565b5b60006115f685828601611348565b9250506020611607858286016111f6565b9150509250929050565b60006040820190506116266000830185611278565b6116336020830184611278565b9392505050565b7f4f776e6572206f6e6c7900000000000000000000000000000000000000000000600082015250565b6000611670600a83611495565b915061167b8261163a565b602082019050919050565b6000602082019050818103600083015261169f81611663565b9050919050565b7f5a65726f206f776e657200000000000000000000000000000000000000000000600082015250565b60006116dc600a83611495565b91506116e7826116a6565b602082019050919050565b6000602082019050818103600083015261170b816116cf565b9050919050565b7f52656c61796572206f6e6c790000000000000000000000000000000000000000600082015250565b6000611748600c83611495565b915061175382611712565b602082019050919050565b600060208201905081810360008301526117778161173b565b9050919050565b7f5a65726f206167656e7400000000000000000000000000000000000000000000600082015250565b60006117b4600a83611495565b91506117bf8261177e565b602082019050919050565b600060208201905081810360008301526117e3816117a7565b9050919050565b7f416c7265616479206167656e7400000000000000000000000000000000000000600082015250565b6000611820600d83611495565b915061182b826117ea565b602082019050919050565b6000602082019050818103600083015261184f81611813565b9050919050565b7f5a65726f2072656c617965720000000000000000000000000000000000000000600082015250565b600061188c600c83611495565b915061189782611856565b602082019050919050565b600060208201905081810360008301526118bb8161187f565b9050919050565b7f456e642074696d65206d75737420626520667574757265000000000000000000600082015250565b60006118f8601783611495565b9150611903826118c2565b602082019050919050565b60006020820190508181036000830152611927816118eb565b9050919050565b7f4e487b7100000000000000000000000000000000000000000000000000000000600052601160045260246000fd5b60006119688261126e565b91506119738361126e565b925082820190508082111561198b5761198a61192e565b5b92915050565b7f4e487b7100000000000000000000000000000000000000000000000000000000600052604160045260246000fd5b7f4e487b7100000000000000000000000000000000000000000000000000000000600052602260045260246000fd5b60006002820490506001821680611a0757607f821691505b602082108103611a1a57611a196119c0565b5b50919050565b60008190508160005260206000209050919050565b60006020601f8301049050919050565b600082821b905092915050565b600060088302611a827fffffffffffffffffffffffffffffffffffffffffffffffffffffffffffffffff82611a45565b611a8c8683611a45565b95508019841693508086168417925050509392505050565b6000819050919050565b6000611ac9611ac4611abf8461126e565b611aa4565b61126e565b9050919050565b6000819050919050565b611ae383611aae565b611af7611aef82611ad0565b848454611a52565b825550505050565b600090565b611b0c611aff565b611b17818484611ada565b505050565b5b81811015611b3b57611b30600082611b04565b600181019050611b1d565b5050565b601f821115611b8057611b5181611a20565b611b5a84611a35565b81016020851015611b69578190505b611b7d611b7585611a35565b830182611b1c565b50505b505050565b600082821c905092915050565b6000611ba360001984600802611b85565b1980831691505092915050565b6000611bbc8383611b92565b9150826002028217905092915050565b611bd58261148a565b67ffffffffffffffff811115611bee57611bed611991565b5b611bf882546119ef565b611c03828285611b3f565b600060209050601f831160018114611c365760008415611c24578287015190505b611c2e8582611bb0565b865550611c96565b601f198416611c4486611a20565b60005b82811015611c6c57848901518255600182019150602085019450602081019050611c47565b86831015611c895784890151611c85601f891682611b92565b8355505b6001600288020188555050505b505050505050565b82818337600083830152505050565b6000611cb98385611495565b9350611cc6838584611c9e565b611ccf836114d0565b840190509392505050565b60006040820190508181036000830152611cf5818587611cad565b9050611d046020830184611278565b949350505050565b7f556e6b6e6f776e206167656e7400000000000000000000000000000000000000600082015250565b6000611d42600d83611495565b9150611d4d82611d0c565b602082019050919050565b60006020820190508181036000830152611d7181611d35565b9050919050565b7f4e6f206d61726b65740000000000000000000000000000000000000000000000600082015250565b6000611dae600983611495565b9150611db982611d78565b602082019050919050565b60006020820190508181036000830152611ddd81611da1565b9050919050565b7f5265736f6c766564000000000000000000000000000000000000000000000000600082015250565b6000611e1a600883611495565b9150611e2582611de4565b602082019050919050565b60006020820190508181036000830152611e4981611e0d565b9050919050565b7f456e646564000000000000000000000000000000000000000000000000000000600082015250565b6000611e86600583611495565b9150611e9182611e50565b602082019050919050565b60006020820190508181036000830152611eb581611e79565b9050919050565b7f5a65726f207374616b6500000000000000000000000000000000000000000000600082015250565b6000611ef2600a83611495565b9150611efd82611ebc565b602082019050919050565b60006020820190508181036000830152611f2181611ee5565b9050919050565b7f496e76616c696420736964650000000000000000000000000000000000000000600082015250565b6000611f5e600c83611495565b9150611f6982611f28565b602082019050919050565b60006020820190508181036000830152611f8d81611f51565b9050919050565b6000604082019050611fa9600083018561151a565b611fb66020830184611278565b9392505050565b7f416c7265616479207265736f6c76656400000000000000000000000000000000600082015250565b6000611ff3601083611495565b9150611ffe82611fbd565b602082019050919050565b6000602082019050818103600083015261202281611fe6565b9050919050565b600060208201905061203e600083018461151a565b9291505056fea264697066735822122085109069fc66b375f8629de713a74d9bce103c0ecfc3dac1367627a23ceb4c1c64736f6c63430008140033",
  "linkReferences": {},
  "deployedLinkReferences": {}
}